:100000000C9462000C948A000C948A000C948A0070
:100010000C948A000C948A000C948A000C948A0038
:100020000C948A000C948A000C948A000C948A0028
:100030000C948A000C948A000C948A000C948A0018
:100040000C94E6040C948A000C94B4040C948E0472
:100050000C948A000C948A000C948A000C948A00F8
:100060000C948A000C948A000000000024002700F1
:100070002A0000000000250028002B0000000000DE
:1000800023002600290004040404040404040202DA
:100090000202020203030303030301020408102007
:1000A0004080010204081020010204081020000012
:1000B0000008000201000003040700000000000027
:1000C0000000300511241FBECFEFD8E0DEBFCDBF4A
:1000D00011E0A0E0B1E0EEE0FFE002C005900D927B
:1000E000A034B107D9F722E0A0E4B1E001C01D922D
:1000F000A030B207E1F710E0C2E6D0E004C02197DB
:10010000FE010E947F07C136D107C9F70E947A0518
:100110000C9485070C940000AF92BF92CF92DF92AF
:10012000EF92FF920F931F93CF93DF936C017B01AC
:100130008B01040F151FEB015E01AE18BF08C0173D
:10014000D10759F06991D601ED91FC910190F081B0
:10015000E02DC6010995892B79F7C501DF91CF9173
:100160001F910F91FF90EF90DF90CF90BF90AF90D5
:100170000895FC01538D448D252F30E0842F90E0AD
:10018000821B930B541710F0CF9608950197089592
:10019000FC01918D828D981761F0A28DAE0FBF2F5B
:1001A000B11D5D968C91928D9F5F9F73928F90E0B1
:1001B00008958FEF9FEF0895FC01918D828D981720
:1001C00031F0828DE80FF11D858D90E008958FEF5D
:1001D0009FEF0895FC01918D228D892F90E0805C26
:1001E0009F4F821B91098F73992708958BE491E0AB
:1001F0000E94EA0021E0892B09F420E0822F089573
:1002000080E090E0892B29F00E94F60081110C9487
:1002100000000895FC01A48DA80FB92FB11DA35AA9
:10022000BF4F2C91848D90E001968F739927848F16
:10023000A689B7892C93A089B1898C918370806439
:100240008C93938D848D981306C00288F389E02DDA
:1002500080818F7D80830895EF92FF920F931F938B
:10026000CF93DF93EC0181E0888F9B8D8C8D981369
:100270001AC0E889F989808185FF15C09FB7F89475
:10028000EE89FF896083E889F989808183708064C1
:1002900080839FBF81E090E0DF91CF911F910F910C
:1002A000FF90EF900895F62E0B8D10E00F5F1F4F1B
:1002B0000F731127E02E8C8D8E110CC00FB607FC2A
:1002C000FACFE889F989808185FFF5CFCE010E94B8
:1002D0000A01F1CFEB8DEC0FFD2FF11DE35AFF4F1B
:1002E000F0829FB7F8940B8FEA89FB898081806246
:1002F000CFCFCF93DF93EC01888D8823B9F0AA8903
:10030000BB89E889F9898C9185FD03C0808186FDD0
:100310000DC00FB607FCF7CF8C9185FFF2CF80811F
:1003200085FFEDCFCE010E940A01E9CFDF91CF9189
:100330000895833081F028F4813099F08230A9F05B
:1003400008958730A9F08830C9F08430B1F48091E5
:1003500080008F7D03C0809180008F778093800024
:10036000089584B58F7784BD089584B58F7DFBCFC4
:100370008091B0008F778093B00008958091B00095
:100380008F7DF9CFCF93DF93EBEBF0E08491E7EA39
:10039000F0E0D491E3E9F0E0C491CC23A1F0811125
:1003A0000E949901EC2FF0E0EE0FFF1FE458FF4F81
:1003B000A591B491EC91ED2381E090E009F480E007
:1003C000DF91CF91089580E090E0FACF1F93CF9313
:1003D000DF93282F30E0F901E255FF4F8491F901B6
:1003E000E656FF4FD491F901EA57FF4FC491CC2351
:1003F000A9F0162F81110E949901EC2FF0E0EE0F69
:10040000FF1FEE58FF4FA591B4918FB7F894EC9170
:10041000111108C0D095DE23DC938FBFDF91CF91FF
:100420001F910895DE2BF8CFCF93DF9390E0FC016E
:10043000E656FF4F24918A579F4FFC0184918823F1
:10044000D1F090E0880F991FFC01E859FF4FA5916A
:10045000B491FC01EE58FF4FC591D49161110EC0CB
:100460009FB7F8948C91E22FE0958E238C9328818E
:10047000E223E8839FBFDF91CF9108958FB7F8946F
:10048000EC91E22BEC938FBFF6CF3FB7F8948091BD
:10049000410190914201A0914301B091440126B5E0
:1004A000A89B05C02F3F19F00196A11DB11D3FBFAC
:1004B000BA2FA92F982F8827BC01CD01620F711D7B
:1004C000811D911D42E0660F771F881F991F4A9575
:1004D000D1F708958F929F92AF92BF92CF92DF9201
:1004E000EF92FF924B015C010E9445026B017C017F
:1004F0000E9445026C197D098E099F09683E734070
:1005000081059105A8F321E0821A9108A108B1089C
:1005100088EEC80E83E0D81EE11CF11C8114910402
:10052000A104B10429F7FF90EF90DF90CF90BF9026
:10053000AF909F908F900895089590E080E0089587
:10054000CF93DF93EC0160E08E810E94E60161E0D1
:100550008E810E94E60160E08E810E94E6018BE8B8
:1005600091E00197F1F7DF91CF910895CF92DF925B
:10057000EF92FF920F931F93CF93DF936C017C0157
:1005800087E0E80EF11CD0E0C0E0062F10E0B801D3
:100590000C2E02C0759567950A94E2F76170F70119
:1005A00081917F010E94E6012196C430D10579F73F
:1005B000C601DF91CF911F910F91FF90EF90DF90D7
:1005C000CF900C94A002CF92DF92EF92FF920F9304
:1005D0001F93CF93DF93EC01F62E642F8C810E9442
:1005E000E6018D818F3F19F060E00E94E6010F2D3A
:1005F00010E08F8584FF25C06E0187E0C80ED11CF6
:10060000F12CE12CB8010E2C02C0759567950A9467
:10061000E2F76170F60181916F010E94E601FFEF40
:10062000EF1AFF0A88E0E816F10461F7CE01DF91C6
:10063000CF911F910F91FF90EF90DF90CF900C948E
:10064000A002B80184E0759567958A95E1F7CE011F
:100650000E94B6026F2DCE01DF91CF911F910F91B5
:10066000FF90EF90DF90CF900C94B60240E0682F9F
:1006700088EE91E00C94E30281E00E9436038BE364
:100680009FE10197F1F70895CF93DF93823029F42A
:100690009091F70198609093F7018093FB0110927D
:1006A000FC0180E48093FD0180E18093FE0180E500
:1006B0008093FF0161E08091EC010E94140280911F
:1006C000ED018F3F19F061E00E94140261E080911A
:1006D000EE010E941402C8EED1E09E01285E314076
:1006E0008091F70184FD0BC084E090E021962817EB
:1006F000390744F461E08E810E941402EECF88E055
:1007000090E0F4CF8BE39DE00197F1F760E08091FA
:10071000EC010E94E60160E08091EE010E94E6019A
:100720008091ED018F3F19F060E00E94E601809119
:10073000F70184FD34C063E088EE91E00E94B602C8
:10074000CBE4D6E4CE010197F1F763E088EE91E0C7
:100750000E94B6022197F1F763E088EE91E00E94D3
:10076000B60283E592E00197F1F762E088EE91E04E
:100770000E94B6028091F70180620E94360384E0F5
:100780008093F8018CE00E9436030E943C0382E0D3
:100790008093F90186E0DF91CF910C94360380625B
:1007A0000E9436038BE496E40197F1F78091F701FC
:1007B00080620E94360383E592E00197F1F7809111
:1007C000F70180620E943603D5CF9091FB01691733
:1007D00010F06FEF690FE62FF0E0E851FE4F9489BB
:1007E000890F80680C94360341E00E94E30281E0A7
:1007F00090E00895FB0101900020E9F73197AF01E7
:10080000461B570BDC01ED91FC910280F381E02D3A
:1008100009944F925F926F927F92AF92BF92CF9264
:10082000DF92EF92FF920F931F93CF93DF93CDB799
:10083000DEB7A1970FB6F894DEBF0FBECDBF5C0147
:100840006A017B01F7FE47C0DC01ED91FC9101904C
:10085000F081E02D6DE209958C0122273327A90153
:100860002C193D094E095F0919A2FE01B1967F01BD
:100870009AE0492E512C612C712CCA01B901A301B7
:1008800092010E944707605DD7016E937D0121159B
:1008900031054105510589F790E080E0109721F07E
:1008A000BD01C5010E94FA03800F911FA1960FB6EA
:1008B000F894DEBF0FBECDBFDF91CF911F910F9196
:1008C000FF90EF90DF90CF90BF90AF907F906F90B0
:1008D0005F904F900895AB01960119A28E010F5DB4
:1008E0001F4F8AE0C82ED12CE12CF12CCA01B9018E
:1008F000A70196010E944707605DF80162938F018E
:10090000211531054105510589F790E080E03097C8
:1009100069F2BF01C5010E94FA03C8CF1F920F926E
:100920000FB60F9211242F933F934F935F936F93C2
:100930007F938F939F93AF93BF93EF93FF938BE43A
:1009400091E00E940A01FF91EF91BF91AF919F91B9
:100950008F917F916F915F914F913F912F910F9068
:100960000FBE0F901F9018951F920F920FB60F9207
:1009700011242F938F939F93EF93FF93E0915B014B
:10098000F0915C018081E0916101F091620182FD52
:100990001BC09081809164018F5F8F7320916501EE
:1009A000821741F0E0916401F0E0E55BFE4F958F26
:1009B00080936401FF91EF919F918F912F910F9000
:1009C0000FBE0F901F9018958081F4CF1F920F9249
:1009D0000FB60F9211242F933F938F939F93AF9352
:1009E000BF938091450190914601A0914701B0913C
:1009F00048013091400123E0230F2D3758F501962F
:100A0000A11DB11D209340018093450190934601A3
:100A1000A0934701B0934801809141019091420118
:100A2000A0914301B09144010196A11DB11D809395
:100A3000410190934201A0934301B0934401BF91BF
:100A4000AF919F918F913F912F910F900FBE0F907B
:100A50001F90189526E8230F0296A11DB11DD2CF35
:100A6000EBE4F1E01382128288EE93E0A0E0B0E0C4
:100A700084839583A683B78384E091E09183808308
:100A800085EC90E09587848784EC90E09787868753
:100A900080EC90E0918B808B81EC90E0938B828B4B
:100AA00082EC90E0958B848B86EC90E0978B868B24
:100AB000118E128E138E148EE8EEF1E013821282E4
:100AC00086E191E0918380838CE084838FEF85833E
:100AD0008BE0868385E0878384E0808783E081875D
:100AE00082E082871386148615861686178681E033
:100AF0000C944403789484B5826084BD84B581608D
:100B000084BD85B5826085BD85B5816085BD8091D8
:100B10006E00816080936E00109281008091810050
:100B20008260809381008091810081608093810048
:100B3000809180008160809380008091B10084600A
:100B40008093B1008091B00081608093B00080916B
:100B50007A00846080937A0080917A00826080932A
:100B60007A0080917A00816080937A0080917A0087
:100B7000806880937A001092C10061E086E00E9454
:100B80001402E4EBF0E0E491E33009F437C150F4EF
:100B9000E130E1F0E23009F42BC160E086E00E9430
:100BA000E60119C0E73009F435C1E83009F43BC16A
:100BB000E43099F7809180008062809380008BE41C
:100BC00090E090938B0080938A0005C084B5806884
:100BD00084BD8BE487BD60E08DE00E941402E0914B
:100BE0005B01F0915C0182E08083E0915701F0911C
:100BF00058011082E0915901F0915A018FEC8083E5
:100C000010926301E0915F01F091600186E08083C2
:100C1000E0915D01F0915E01808180618083E091CF
:100C20005D01F0915E01808188608083E0915D01CB
:100C3000F0915E01808180688083E0915D01F09198
:100C40005E0180818F7D808382E00E9444036EE19B
:100C500071E088EE91E00E94FA0368EE73E080E0B4
:100C600090E00E946A020E943C038CE3F82E9CEE06
:100C7000892E94E0992EA12CB12C20E0C22E20E0E8
:100C8000D22E64E670E080E090E00E946A028FB7A6
:100C9000F894409045015090460160904701709053
:100CA00048018FBFC0E010E000E00E94C201019740
:100CB00009F4C1E00E94C201892B29F4CC2319F068
:100CC0000F5F1F4FC0E02FB7F894809145019091BE
:100CD0004601A0914701B09148012FBF84199509A1
:100CE000A609B709893E9340A105B105F0F2F09E2F
:100CF000E001F19ED00D11248091490190914A01AB
:100D00008C179D0724F4D0934A01C09349010E9497
:100D10003C030E943C0360E080E00E94E5032E015A
:100D20000D2E000C66087708B301A20188EE91E051
:100D30000E94090460E087E00E94E50340914901B8
:100D400050914A01052E000C660B770B88EE91E05E
:100D50000E94090460E08DE00E94E5036BE271E00F
:100D600088EE91E00E94FA0365E371E08BE491E084
:100D70000E94FA03B301A2018BE491E00E940904EE
:100D80006FE271E08BE491E00E94FA034091490127
:100D900050914A01052E000C660B770B8BE491E015
:100DA0000E9409046CE371E08BE491E00E94FA0375
:100DB00061E080E00E94E5032097F1F12FE030E050
:100DC000DE010E947807A50194010E94280789018D
:100DD000D0E0C0E00C171D077CF161E08C2F0E9471
:100DE000E5036FEF88EE91E00E94F4032196F2CFC5
:100DF00084B5806284BD8BE488BDEDCE8091800097
:100E00008068809380008BE490E0909389008093C9
:100E10008800E1CE8091B00080688093B0008BE4C0
:100E20008093B300D8CE8091B00080628093B000F0
:100E30008BE48093B400CFCEC114D10409F421CF48
:100E40000E94F600882309F41CCF0E94000019CFED
:100E5000052E97FB1EF400940E943F0757FD07D014
:100E60000E94470707FC03D04EF40C943F075095AF
:100E70004095309521953F4F4F4F5F4F0895909586
:100E80008095709561957F4F8F4F9F4F0895A1E298
:100E90001A2EAA1BBB1BFD010DC0AA1FBB1FEE1FF4
:100EA000FF1FA217B307E407F50720F0A21BB30B3F
:100EB000E40BF50B661F771F881F991F1A9469F7BB
:100EC00060957095809590959B01AC01BD01CF0117
:100ED0000895A29FB001B39FC001A39F700D811D13
:100EE0001124911DB29F700D811D1124911D089533
:100EF0000E946907B7FF0895821B930B0895EE0FB8
:0E0F0000FF1F0590F491E02D0994F894FFCFA7
:100F0E00000000002C018C00B9007901EA00C80035
:100F1E00DC0000000000F4038C009D029C02496E70
:100F2E00697469616C697A696E67004D4158002079
:100F3E00204D41582052504D203D20000D0A0000FA
:107E0000112484B714BE81FFF0D085E080938100F7
:107E100082E08093C00088E18093C10086E0809377
:107E2000C20080E18093C4008EE0C9D0259A86E02C
:107E300020E33CEF91E0309385002093840096BBD3
:107E4000B09BFECF1D9AA8958150A9F7CC24DD24C4
:107E500088248394B5E0AB2EA1E19A2EF3E0BF2EE7
:107E6000A2D0813461F49FD0082FAFD0023811F036
:107E7000013811F484E001C083E08DD089C08234E0
:107E800011F484E103C0853419F485E0A6D080C0E4
:107E9000853579F488D0E82EFF2485D0082F10E0AE
:107EA000102F00270E291F29000F111F8ED06801E7
:107EB0006FC0863521F484E090D080E0DECF843638
:107EC00009F040C070D06FD0082F6DD080E0C81688
:107ED00080E7D80618F4F601B7BEE895C0E0D1E017
:107EE00062D089930C17E1F7F0E0CF16F0E7DF06D8
:107EF00018F0F601B7BEE89568D007B600FCFDCFD4
:107F0000A601A0E0B1E02C9130E011968C91119780
:107F100090E0982F8827822B932B1296FA010C0160
:107F200087BEE89511244E5F5F4FF1E0A038BF0790
:107F300051F7F601A7BEE89507B600FCFDCF97BE46
:107F4000E89526C08437B1F42ED02DD0F82E2BD052
:107F50003CD0F601EF2C8F010F5F1F4F84911BD097
:107F6000EA94F801C1F70894C11CD11CFA94CF0C13
:107F7000D11C0EC0853739F428D08EE10CD085E9AC
:107F80000AD08FE07ACF813511F488E018D01DD067
:107F900080E101D065CF982F8091C00085FFFCCF94
:107FA0009093C60008958091C00087FFFCCF809118
:107FB000C00084FD01C0A8958091C6000895E0E648
:107FC000F0E098E1908380830895EDDF803219F02E
:107FD00088E0F5DFFFCF84E1DECF1F93182FE3DFCA
:107FE0001150E9F7F2DF1F91089580E0E8DFEE27F6
:047FF000FF270994CA
:027FFE00040479
:0400000300007E007B
:00000001FF
